{
  "_format": "hh-sol-artifact-1",
  "contractName": "PredictionMarket",
  "sourceName": "contracts/PredictionMarket.sol",
  "abi": [
    {
      "inputs": [
        {
          "internalType": "address",
          "name": "_bettingToken",
          "type": "address"
        }
      ],
      "stateMutability": "nonpayable",
      "type": "constructor"
    },
    {
      "inputs": [
        {
          "internalType": "address",
          "name": "owner",
          "type": "address"
        }
      ],
      "name": "OwnableInvalidOwner",
      "type": "error"
    },
    {
      "inputs": [
        {
          "internalType": "address",
          "name": "account",
          "type": "address"
        }
      ],
      "name": "OwnableUnauthorizedAccount",
      "type": "error"
    },
    {
      "inputs": [],
      "name": "ReentrancyGuardReentrantCall",
      "type": "error"
    },
    {
      "anonymous": false,
      "inputs": [
        {
          "indexed": true,
          "internalType": "uint256",
          "name": "id",
          "type": "uint256"
        },
        {
          "indexed": false,
          "internalType": "string",
          "name": "question",
          "type": "string"
        },
        {
          "indexed": false,
          "internalType": "string",
          "name": "description",
          "type": "string"
        },
        {
          "indexed": false,
          "internalType": "uint256",
          "name": "endTime",
          "type": "uint256"
        }
      ],
      "name": "MarketCreated",
      "type": "event"
    },
    {
      "anonymous": false,
      "inputs": [
        {
          "indexed": true,
          "internalType": "uint256",
          "name": "id",
          "type": "uint256"
        },
        {
          "indexed": false,
          "internalType": "bool",
          "name": "outcome",
          "type": "bool"
        }
      ],
      "name": "MarketResolved",
      "type": "event"
    },
    {
      "anonymous": false,
      "inputs": [
        {
          "indexed": true,
          "internalType": "address",
          "name": "previousOwner",
          "type": "address"
        },
        {
          "indexed": true,
          "internalType": "address",
          "name": "newOwner",
          "type": "address"
        }
      ],
      "name": "OwnershipTransferred",
      "type": "event"
    },
    {
      "anonymous": false,
      "inputs": [
        {
          "indexed": true,
          "internalType": "uint256",
          "name": "id",
          "type": "uint256"
        },
        {
          "indexed": true,
          "internalType": "address",
          "name": "user",
          "type": "address"
        },
        {
          "indexed": false,
          "internalType": "uint256",
          "name": "amount",
          "type": "uint256"
        }
      ],
      "name": "RewardClaimed",
      "type": "event"
    },
    {
      "anonymous": false,
      "inputs": [
        {
          "indexed": true,
          "internalType": "uint256",
          "name": "id",
          "type": "uint256"
        },
        {
          "indexed": true,
          "internalType": "address",
          "name": "user",
          "type": "address"
        },
        {
          "indexed": false,
          "internalType": "bool",
          "name": "isYes",
          "type": "bool"
        },
        {
          "indexed": false,
          "internalType": "uint256",
          "name": "amount",
          "type": "uint256"
        }
      ],
      "name": "SharesPurchased",
      "type": "event"
    },
    {
      "inputs": [],
      "name": "bettingToken",
      "outputs": [
        {
          "internalType": "contract IERC20",
          "name": "",
          "type": "address"
        }
      ],
      "stateMutability": "view",
      "type": "function"
    },
    {
      "inputs": [
        {
          "internalType": "uint256",
          "name": "_marketId",
          "type": "uint256"
        },
        {
          "internalType": "uint256",
          "name": "_amount",
          "type": "uint256"
        }
      ],
      "name": "buyNo",
      "outputs": [],
      "stateMutability": "nonpayable",
      "type": "function"
    },
    {
      "inputs": [
        {
          "internalType": "uint256",
          "name": "_marketId",
          "type": "uint256"
        },
        {
          "internalType": "uint256",
          "name": "_amount",
          "type": "uint256"
        }
      ],
      "name": "buyYes",
      "outputs": [],
      "stateMutability": "nonpayable",
      "type": "function"
    },
    {
      "inputs": [
        {
          "internalType": "uint256",
          "name": "_marketId",
          "type": "uint256"
        }
      ],
      "name": "claimReward",
      "outputs": [],
      "stateMutability": "nonpayable",
      "type": "function"
    },
    {
      "inputs": [
        {
          "internalType": "string",
          "name": "_question",
          "type": "string"
        },
        {
          "internalType": "string",
          "name": "_description",
          "type": "string"
        },
        {
          "internalType": "uint256",
          "name": "_duration",
          "type": "uint256"
        }
      ],
      "name": "createMarket",
      "outputs": [],
      "stateMutability": "nonpayable",
      "type": "function"
    },
    {
      "inputs": [],
      "name": "getAllMarkets",
      "outputs": [
        {
          "components": [
            {
              "internalType": "uint256",
              "name": "id",
              "type": "uint256"
            },
            {
              "internalType": "string",
              "name": "question",
              "type": "string"
            },
            {
              "internalType": "string",
              "name": "description",
              "type": "string"
            },
            {
              "internalType": "uint256",
              "name": "endTime",
              "type": "uint256"
            },
            {
              "internalType": "bool",
              "name": "resolved",
              "type": "bool"
            },
            {
              "internalType": "bool",
              "name": "outcome",
              "type": "bool"
            },
            {
              "internalType": "uint256",
              "name": "totalYesShares",
              "type": "uint256"
            },
            {
              "internalType": "uint256",
              "name": "totalNoShares",
              "type": "uint256"
            }
          ],
          "internalType": "struct PredictionMarket.Market[]",
          "name": "",
          "type": "tuple[]"
        }
      ],
      "stateMutability": "view",
      "type": "function"
    },
    {
      "inputs": [
        {
          "internalType": "uint256",
          "name": "_marketId",
          "type": "uint256"
        }
      ],
      "name": "getMarket",
      "outputs": [
        {
          "internalType": "string",
          "name": "question",
          "type": "string"
        },
        {
          "internalType": "string",
          "name": "description",
          "type": "string"
        },
        {
          "internalType": "uint256",
          "name": "endTime",
          "type": "uint256"
        },
        {
          "internalType": "bool",
          "name": "resolved",
          "type": "bool"
        },
        {
          "internalType": "bool",
          "name": "outcome",
          "type": "bool"
        },
        {
          "internalType": "uint256",
          "name": "totalYes",
          "type": "uint256"
        },
        {
          "internalType": "uint256",
          "name": "totalNo",
          "type": "uint256"
        }
      ],
      "stateMutability": "view",
      "type": "function"
    },
    {
      "inputs": [],
      "name": "marketCount",
      "outputs": [
        {
          "internalType": "uint256",
          "name": "",
          "type": "uint256"
        }
      ],
      "stateMutability": "view",
      "type": "function"
    },
    {
      "inputs": [
        {
          "internalType": "uint256",
          "name": "",
          "type": "uint256"
        }
      ],
      "name": "markets",
      "outputs": [
        {
          "internalType": "uint256",
          "name": "id",
          "type": "uint256"
        },
        {
          "internalType": "string",
          "name": "question",
          "type": "string"
        },
        {
          "internalType": "string",
          "name": "description",
          "type": "string"
        },
        {
          "internalType": "uint256",
          "name": "endTime",
          "type": "uint256"
        },
        {
          "internalType": "bool",
          "name": "resolved",
          "type": "bool"
        },
        {
          "internalType": "bool",
          "name": "outcome",
          "type": "bool"
        },
        {
          "internalType": "uint256",
          "name": "totalYesShares",
          "type": "uint256"
        },
        {
          "internalType": "uint256",
          "name": "totalNoShares",
          "type": "uint256"
        }
      ],
      "stateMutability": "view",
      "type": "function"
    },
    {
      "inputs": [],
      "name": "owner",
      "outputs": [
        {
          "internalType": "address",
          "name": "",
          "type": "address"
        }
      ],
      "stateMutability": "view",
      "type": "function"
    },
    {
      "inputs": [],
      "name": "renounceOwnership",
      "outputs": [],
      "stateMutability": "nonpayable",
      "type": "function"
    },
    {
      "inputs": [
        {
          "internalType": "uint256",
          "name": "_marketId",
          "type": "uint256"
        },
        {
          "internalType": "bool",
          "name": "_outcome",
          "type": "bool"
        }
      ],
      "name": "resolveMarket",
      "outputs": [],
      "stateMutability": "nonpayable",
      "type": "function"
    },
    {
      "inputs": [
        {
          "internalType": "address",
          "name": "newOwner",
          "type": "address"
        }
      ],
      "name": "transferOwnership",
      "outputs": [],
      "stateMutability": "nonpayable",
      "type": "function"
    },
    {
      "inputs": [
        {
          "internalType": "uint256",
          "name": "",
          "type": "uint256"
        },
        {
          "internalType": "address",
          "name": "",
          "type": "address"
        }
      ],
      "name": "userNoShares",
      "outputs": [
        {
          "internalType": "uint256",
          "name": "",
          "type": "uint256"
        }
      ],
      "stateMutability": "view",
      "type": "function"
    },
    {
      "inputs": [
        {
          "internalType": "uint256",
          "name": "",
          "type": "uint256"
        },
        {
          "internalType": "address",
          "name": "",
          "type": "address"
        }
      ],
      "name": "userYesShares",
      "outputs": [
        {
          "internalType": "uint256",
          "name": "",
          "type": "uint256"
        }
      ],
      "stateMutability": "view",
      "type": "function"
    }
  ],
  "bytecode": "0x608060405234801561001057600080fd5b506040516118b13803806118b183398101604081905261002f916100f8565b338061005557604051631e4fbdf760e01b81526000600482015260240160405180910390fd5b61005e816100a8565b5060017f9b779b17422d0df92223018b32b4d1fa46e071723d6817e2486d003becc55f0055600180546001600160a01b0319166001600160a01b0392909216919091179055610128565b600080546001600160a01b038381166001600160a01b0319831681178455604051919092169283917f8be0079c531659141344cd1fd0a4f28419497f9722a3daafe3b4186f6b6457e09190a35050565b60006020828403121561010a57600080fd5b81516001600160a01b038116811461012157600080fd5b9392505050565b61177a806101376000396000f3fe608060405234801561001057600080fd5b50600436106100f55760003560e01c8063a9f6b05811610097578063eb44fdd311610066578063eb44fdd314610231578063ec97908214610257578063f2fde38b14610260578063f98b77831461027357600080fd5b8063a9f6b058146101cf578063ae169a50146101e2578063b0772d0b146101f5578063b1283e771461020a57600080fd5b8063715018a6116100d3578063715018a6146101525780638878c0481461015a5780638da5cb5b146101935780639d536597146101a457600080fd5b8063399af502146100fa57806343425e881461010f57806357bde4461461013f575b600080fd5b61010d610108366004611102565b610286565b005b600154610122906001600160a01b031681565b6040516001600160a01b0390911681526020015b60405180910390f35b61010d61014d366004611132565b610473565b61010d610558565b61018561016836600461117e565b600560209081526000928352604080842090915290825290205481565b604051908152602001610136565b6000546001600160a01b0316610122565b6101856101b236600461117e565b600460209081526000928352604080842090915290825290205481565b61010d6101dd366004611102565b61056c565b61010d6101f03660046111aa565b610734565b6101fd610a05565b6040516101369190611209565b61021d6102183660046111aa565b610c7b565b6040516101369897969594939291906112d1565b61024461023f3660046111aa565b610dd5565b604051610136979695949392919061132b565b61018560025481565b61010d61026e36600461137b565b610f56565b61010d610281366004611440565b610f91565b61028e611039565b60008281526003602081905260409091209081015442106102e95760405162461bcd60e51b815260206004820152601060248201526f13585c9ad95d081a185cc8195b99195960821b60448201526064015b60405180910390fd5b600481015460ff161561030e5760405162461bcd60e51b81526004016102e0906114ad565b600082116103535760405162461bcd60e51b81526020600482015260126024820152710416d6f756e74206d757374206265203e20360741b60448201526064016102e0565b6001546040516323b872dd60e01b8152336004820152306024820152604481018490526001600160a01b03909116906323b872dd906064016020604051808303816000875af11580156103aa573d6000803e3d6000fd5b505050506040513d601f19601f820116820180604052508101906103ce91906114e4565b506000838152600460209081526040808320338452909152812080548492906103f8908490611517565b92505081905550818160050160008282546104139190611517565b9091555050604080516001815260208101849052339185917fb3a1ddef05fa52ff8a462662e00f5fd54a3b35e85417cafcaa671fb30434bd1191015b60405180910390a35061046f600160008051602061172583398151915255565b5050565b61047b611055565b6000828152600360208190526040909120908101544210156104d65760405162461bcd60e51b815260206004820152601460248201527313585c9ad95d081b9bdd081e595d08195b99195960621b60448201526064016102e0565b600481015460ff16156104fb5760405162461bcd60e51b81526004016102e0906114ad565b6004810180548315156101000261ffff1990911617600117905560405183907f4927fe38919783250023d27e65a3e56b6b5c3e49364e51674a41ef08d62460d99061054b90851515815260200190565b60405180910390a2505050565b610560611055565b61056a6000611082565b565b610574611039565b60008281526003602081905260409091209081015442106105ca5760405162461bcd60e51b815260206004820152601060248201526f13585c9ad95d081a185cc8195b99195960821b60448201526064016102e0565b600481015460ff16156105ef5760405162461bcd60e51b81526004016102e0906114ad565b600082116106345760405162461bcd60e51b81526020600482015260126024820152710416d6f756e74206d757374206265203e20360741b60448201526064016102e0565b6001546040516323b872dd60e01b8152336004820152306024820152604481018490526001600160a01b03909116906323b872dd906064016020604051808303816000875af115801561068b573d6000803e3d6000fd5b505050506040513d601f19601f820116820180604052508101906106af91906114e4565b506000838152600560209081526040808320338452909152812080548492906106d9908490611517565b92505081905550818160060160008282546106f49190611517565b9091555050604080516000815260208101849052339185917fb3a1ddef05fa52ff8a462662e00f5fd54a3b35e85417cafcaa671fb30434bd11910161044f565b61073c611039565b6000818152600360205260409020600481015460ff1661079e5760405162461bcd60e51b815260206004820152601760248201527f4d61726b6574206e6f74207265736f6c7665642079657400000000000000000060448201526064016102e0565b600080826006015483600501546107b59190611517565b6004840154909150610100900460ff1615610861576000848152600460209081526040808320338452909152902054806108255760405162461bcd60e51b81526020600482015260116024820152704e6f2077696e6e696e672073686172657360781b60448201526064016102e0565b60058401546108348383611530565b61083e9190611547565b600086815260046020908152604080832033845290915281205592506108f39050565b6000848152600560209081526040808320338452909152902054806108bc5760405162461bcd60e51b81526020600482015260116024820152704e6f2077696e6e696e672073686172657360781b60448201526064016102e0565b60068401546108cb8383611530565b6108d59190611547565b60008681526005602090815260408083203384529091528120559250505b6000821161093b5760405162461bcd60e51b815260206004820152601560248201527452657761726420616d6f756e74206973207a65726f60581b60448201526064016102e0565b60015460405163a9059cbb60e01b8152336004820152602481018490526001600160a01b039091169063a9059cbb906044016020604051808303816000875af115801561098c573d6000803e3d6000fd5b505050506040513d601f19601f820116820180604052508101906109b091906114e4565b50604051828152339085907f24b5efa61dd1cfc659205a97fb8ed868f3cb8c81922bab2b96423e5de1de2cb79060200160405180910390a3505050610a02600160008051602061172583398151915255565b50565b6060600060025467ffffffffffffffff811115610a2457610a2461139d565b604051908082528060200260200182016040528015610aa157816020015b610a8e6040518061010001604052806000815260200160608152602001606081526020016000815260200160001515815260200160001515815260200160008152602001600081525090565b815260200190600190039081610a425790505b50905060015b6002548111610c7557600360008281526020019081526020016000206040518061010001604052908160008201548152602001600182018054610ae990611569565b80601f0160208091040260200160405190810160405280929190818152602001828054610b1590611569565b8015610b625780601f10610b3757610100808354040283529160200191610b62565b820191906000526020600020905b815481529060010190602001808311610b4557829003601f168201915b50505050508152602001600282018054610b7b90611569565b80601f0160208091040260200160405190810160405280929190818152602001828054610ba790611569565b8015610bf45780601f10610bc957610100808354040283529160200191610bf4565b820191906000526020600020905b815481529060010190602001808311610bd757829003601f168201915b505050918352505060038201546020820152600482015460ff8082161515604084015261010090910416151560608201526005820154608082015260069091015460a09091015282610c4760018461159d565b81518110610c5757610c576115b0565b60200260200101819052508080610c6d906115c6565b915050610aa7565b50919050565b60036020526000908152604090208054600182018054919291610c9d90611569565b80601f0160208091040260200160405190810160405280929190818152602001828054610cc990611569565b8015610d165780601f10610ceb57610100808354040283529160200191610d16565b820191906000526020600020905b815481529060010190602001808311610cf957829003601f168201915b505050505090806002018054610d2b90611569565b80601f0160208091040260200160405190810160405280929190818152602001828054610d5790611569565b8015610da45780601f10610d7957610100808354040283529160200191610da4565b820191906000526020600020905b815481529060010190602001808311610d8757829003601f168201915b5050506003840154600485015460058601546006909601549495919460ff8083169550610100909204909116925088565b6000818152600360208190526040822090810154600482015460058301546006840154600185018054606097889790968796879687968796949560028701949360ff80821694610100909204169290918790610e3090611569565b80601f0160208091040260200160405190810160405280929190818152602001828054610e5c90611569565b8015610ea95780601f10610e7e57610100808354040283529160200191610ea9565b820191906000526020600020905b815481529060010190602001808311610e8c57829003601f168201915b50505050509650858054610ebc90611569565b80601f0160208091040260200160405190810160405280929190818152602001828054610ee890611569565b8015610f355780601f10610f0a57610100808354040283529160200191610f35565b820191906000526020600020905b815481529060010190602001808311610f1857829003601f168201915b50505050509550975097509750975097509750975050919395979092949650565b610f5e611055565b6001600160a01b038116610f8857604051631e4fbdf760e01b8152600060048201526024016102e0565b610a0281611082565b60028054906000610fa1836115c6565b9091555050600254600081815260036020526040902081815560018101610fc8868261162e565b5060028101610fd7858261162e565b50610fe28342611517565b6003820181905560048201805460ff1916905560405183917f5efbba1029bf313d611dcc18db8c401465f4a191b59cc799da765ddbafa68e709161102a9189918991906116ee565b60405180910390a25050505050565b6110416110d2565b600260008051602061172583398151915255565b6000546001600160a01b0316331461056a5760405163118cdaa760e01b81523360048201526024016102e0565b600080546001600160a01b038381166001600160a01b0319831681178455604051919092169283917f8be0079c531659141344cd1fd0a4f28419497f9722a3daafe3b4186f6b6457e09190a35050565b6000805160206117258339815191525460020361056a57604051633ee5aeb560e01b815260040160405180910390fd5b6000806040838503121561111557600080fd5b50508035926020909101359150565b8015158114610a0257600080fd5b6000806040838503121561114557600080fd5b82359150602083013561115781611124565b809150509250929050565b80356001600160a01b038116811461117957600080fd5b919050565b6000806040838503121561119157600080fd5b823591506111a160208401611162565b90509250929050565b6000602082840312156111bc57600080fd5b5035919050565b6000815180845260005b818110156111e9576020818501810151868301820152016111cd565b506000602082860101526020601f19601f83011685010191505092915050565b60006020808301818452808551808352604092508286019150828160051b87010184880160005b838110156112c357603f1989840301855281516101008151855288820151818a87015261125f828701826111c3565b915050878201518582038987015261127782826111c3565b6060848101519088015260808085015115159088015260a08085015115159088015260c0808501519088015260e093840151939096019290925250509386019390860190600101611230565b509098975050505050505050565b60006101008a83528060208401526112eb8184018b6111c3565b905082810360408401526112ff818a6111c3565b60608401989098525050931515608085015291151560a084015260c083015260e0909101529392505050565b60e08152600061133e60e083018a6111c3565b8281036020840152611350818a6111c3565b604084019890985250509315156060850152911515608084015260a083015260c09091015292915050565b60006020828403121561138d57600080fd5b61139682611162565b9392505050565b634e487b7160e01b600052604160045260246000fd5b600082601f8301126113c457600080fd5b813567ffffffffffffffff808211156113df576113df61139d565b604051601f8301601f19908116603f011681019082821181831017156114075761140761139d565b8160405283815286602085880101111561142057600080fd5b836020870160208301376000602085830101528094505050505092915050565b60008060006060848603121561145557600080fd5b833567ffffffffffffffff8082111561146d57600080fd5b611479878388016113b3565b9450602086013591508082111561148f57600080fd5b5061149c868287016113b3565b925050604084013590509250925092565b60208082526017908201527f4d61726b657420616c7265616479207265736f6c766564000000000000000000604082015260600190565b6000602082840312156114f657600080fd5b815161139681611124565b634e487b7160e01b600052601160045260246000fd5b8082018082111561152a5761152a611501565b92915050565b808202811582820484141761152a5761152a611501565b60008261156457634e487b7160e01b600052601260045260246000fd5b500490565b600181811c9082168061157d57607f821691505b602082108103610c7557634e487b7160e01b600052602260045260246000fd5b8181038181111561152a5761152a611501565b634e487b7160e01b600052603260045260246000fd5b6000600182016115d8576115d8611501565b5060010190565b601f82111561162957600081815260208120601f850160051c810160208610156116065750805b601f850160051c820191505b8181101561162557828155600101611612565b5050505b505050565b815167ffffffffffffffff8111156116485761164861139d565b61165c816116568454611569565b846115df565b602080601f83116001811461169157600084156116795750858301515b600019600386901b1c1916600185901b178555611625565b600085815260208120601f198616915b828110156116c0578886015182559484019460019091019084016116a1565b50858210156116de5787850151600019600388901b60f8161c191681555b5050505050600190811b01905550565b60608152600061170160608301866111c3565b828103602084015261171381866111c3565b91505082604083015294935050505056fe9b779b17422d0df92223018b32b4d1fa46e071723d6817e2486d003becc55f00a2646970667358221220ffeb680b5941776c70c7c8afd438a9f7d2212c4b85fa6248eb2041dd36f49b4e64736f6c63430008140033",
  "linkReferences": {},
  "deployedLinkReferences": {}
}